S00F000030325F6C6564732E73726563AC
S11300000C9434000C943E000C943E000C943E007E
S11300100C943E000C943E000C943E000C943E0064
S11300200C943E000C943E000C943E000C943E0054
S11300300C943E000C943E000C943E000C943E0044
S11300400C943E000C943E000C943E000C943E0034
S11300500C943E000C943E000C943E000C943E0024
S11300600C943E000C943E0011241FBECFEFD8E048
S1130070DEBFCDBF0E9440000C944F000C940000E2
S1130080259A389A509A589821E090E24899FECFE0
S113009088B1822788B985B1892785B9F7CFF894C3
S10500A0FFCF8C
S9030000FC
