:100000000C9434000C943E000C943E000C943E0082
:100010000C943E000C943E000C943E000C943E0068
:100020000C943E000C943E000C943E000C943E0058
:100030000C943E000C943E000C943E000C943E0048
:100040000C943E000C943E000C943E000C943E0038
:100050000C943E000C943E000C943E000C943E0028
:100060000C943E000C943E0011241FBECFEFD8E04C
:10007000DEBFCDBF0E9440000C9473000C940000C2
:10008000259A2D98389A409820E291E085B18227F0
:1000900085B93FEF49E688E1315040408040E1F7C3
:1000A00000C000002D983FEF49E688E13150404004
:1000B0008040E1F700C0000088B1892788B93FEF90
:1000C00049E688E1315040408040E1F700C000003F
:1000D00040983FEF49E688E1315040408040E1F7E9
:0A00E00000C00000D3CFF894FFCF5A
:00000001FF
