:100000000C9434000C9449000C9449000C94490061
:100010000C9449000C9449000C9449000C9449003C
:100020000C9449000C9449000C9449000C9449002C
:100030000C9449000C9477000C9449000C944900EE
:100040000C9449000C9449000C9449000C9449000C
:100050000C9449000C9449000C9449000C944900FC
:100060000C9449000C94490011241FBECFEFD8E036
:10007000DEBFCDBF11E0A0E0B1E0ECE0F2E002C0F5
:1000800005900D92AE30B107D9F70E9470000C9424
:1000900004010C940000FC01408121E030E002C02A
:1000A000220F331F6A95E2F7242B20830895FC0169
:1000B000908121E030E002C0220F331F6A95E2F701
:1000C0002095292320830895FC01408121E030E020
:1000D00002C0220F331F6A95E2F7242B2083089574
:1000E0000E94810060E083E00E949100FFCF1F9298
:1000F0000F920FB60F9211240F900FBE0F901F900A
:10010000189564E08AE290E00E944B0067E08AE282
:1001100090E00E944B0060E084E290E00E944B007F
:1001200008951F93CF93DF93E82FF0E0EC5FFE4F2D
:100130001081E62FF0E0E050FF4FD08164E08BE2C9
:1001400090E00E94570067E08BE290E00E94570029
:1001500060E085E290E00E94570085E08A95F1F723
:100160000000C8E010FD06C060E085E290E00E945B
:10017000570005C060E085E290E00E94640085E0E1
:100180008A95F1F7000067E08BE290E00E9464003E
:1001900085E08A95F1F7000067E08BE290E00E942D
:1001A00057001695C150F1F6C8E0D0FD06C060E0DA
:1001B00085E290E00E94570005C060E085E290E093
:1001C0000E94640085E08A95F1F7000067E08BE209
:1001D00090E00E94640085E08A95F1F7000067E0F6
:1001E0008BE290E00E945700D695C150F1F664E092
:1001F0008BE290E00E94640085E08A95F1F70000B0
:0C020000DF91CF911F910895F894FFCF7B
:0E020C0010204080039F250D9949411F0109D4
:00000001FF
