S00E000030362D6C63642E7372656350
S11300000C9434000C9451000C9451000C94510045
S11300100C9451000C9451000C9451000C94510018
S11300200C9451000C94FB000C9451000C9451005E
S11300300C9451000C9451000C9451000C945100F8
S11300400C9451000C9451000C9451000C945100E8
S11300500C9451000C9451000C9451000C945100D8
S11300600C9451000C94510011241FBECFEFD8E022
S1130070DEBFCDBF11E0A0E0B1E0E6E2F2E002C0F5
S113008005900D92A830B107D9F721E0A8E0B1E0BE
S113009001C01D92A930B207E1F70E94E0000C9460
S11300A011010C940000299A85E08A95F1F700006B
S11300B029980895CF93C82F662311F0289A01C078
S11300C02898549A559A569A579A5F985E985D98CC
S11300D05C98CC230CF45F9AC6FD5E9AC5FD5D9ACC
S11300E0C4FD5C9A0E9453005F985E985D985C988A
S11300F0C3FD5F9AC2FD5E9AC1FD5D9AC0FD5C9A24
S11301000E9453005C9A5D9A5E9A5F9A87EB9BE02B
S11301100197F1F700C00000CF91089560E00E94BC
S11301205A00089561E00E945A00089581E00E94F7
S11301308E00089561E00E945A000895CF93C82F5D
S1130140209A559A219A549A559A569A579A8FEF0B
S113015099EF0197F1F700C000005D9A5C9A0E9444
S113016053008FE19EE40197F1F700C000000E9464
S113017053008FEF90E00197F1F700C000000E9458
S113018053008FEF90E00197F1F700C000005C98F6
S11301900E9453008FEF90E00197F1F700C0000038
S11301A088E20E948E0088E00E948E000E949600E1
S11301B086E00E948E008C2F0E948E00CF910895BD
S11301C08CE00E949E0080E40E948E00C0E0D1E09A
S11301D008E011E089910E949200C017D107D1F77D
S11301E080E80E948E0080E00E949A0081E00E94D4
S11301F09A007894FFCF1F920F920FB60F9211249A
S11302008F93809108018F5F863018F480930801E2
S113021002C0109208018F910F900FBE0F901F9093
S10902201895F894FFCFCD
S10B0226150A150A150A150A50
S9030000FC
