:100000000C9434000C943E000C943E000C943E0082
:100010000C943E000C943E000C943E000C943E0068
:100020000C943E000C943E000C943E000C943E0058
:100030000C943E000C943E000C943E000C943E0048
:100040000C943E000C943E000C943E000C943E0038
:100050000C943E000C943E000C943E000C943E0028
:100060000C943E000C943E0011241FBECFEFD8E04C
:10007000DEBFCDBF0E9440000C945A000C940000DB
:10008000259A2D9890E22FEF3BED85E021503040EE
:100090008040E1F700C0000085B1892785B92FEFC6
:1000A00034E38CE0215030408040E1F700C0000094
:0800B0002D98E9CFF894FFCF71
:00000001FF
